:100000000C9456000C9460000C9460000C946000FA
:100010000C9460000C9460000C9460000C946000E0
:100020000C9460000C9460000C9460000C946000D0
:100030000C9460000C9460000C9460000C946000C0
:100040000C9460000C9460000C9460000C946000B0
:100050000C9460000C9460000C9460000C946000A0
:100060000C9460000C9460000C9460000C94600090
:100070000C9460000C9460000C9460000C94600080
:100080000C9460000C9460000C9460000C94600070
:100090000C9460000C9460000C9460000C94600060
:1000A0000C9460000C9460000C94600011241FBE3E
:1000B000CFEFDAE0DEBFCDBF0E9435010C943E01E8
:1000C0000C94000082E18093F10081E08093F100C4
:1000D0001092F10092E09093F1001092F1001092D2
:1000E000F1001092F10020E42093F1002DEE209316
:1000F000F1002EEF2093F1002EE42093F1001092F6
:10010000F1001092F1001092F1008093F1009093B1
:10011000F10093E09093F1008093F1008091E8006A
:100120008E778093E8008091E80082FFFCCF809179
:10013000E8008B778093E80008958091D700816074
:100140008093D70089B5806189BD89B5826089BDFA
:1001500009B400FEFDCF8091D80080688093D8005C
:100160008091D8008F7D8093D8008091D8008061E5
:100170008093D8008091D90080FFFCCF8091E0006F
:100180008E7F8093E0000895559A5D9808951092AF
:10019000E9008091EB0081608093EB001092EC000D
:1001A00082E38093ED008091EE0087FF0C94C40001
:1001B00008958091E10083FF07C08091E100877F6F
:1001C0008093E1000C94C70008958091E80083FFBC
:1001D0002AC08091F1009091F1008091E800877F22
:1001E0008093E800953049F09630D9F48091E8008A
:1001F00085FF0E94C4000C9462008091F1008F770B
:100200008093E3008091E8008E7F8093E8008091E6
:10021000E80080FFFCCF8091E30080688093E300DA
:1002200008950C94C4000895559A5D9A0895209AF3
:1002300028980895209A289A08958091E000816076
:100240008093E0008FEF93EC29E0815090402040B4
:10025000E1F700C000000E9414010C941A01509AAA
:10026000589A0895509A589808950E941D010E9426
:100270009D000E94D9000E94E500FBCFF894FFCFBB
:00000001FF
