:100000000C9456000C9460000C9460000C946000FA
:100010000C9460000C9460000C9460000C946000E0
:100020000C9460000C9460000C9460000C946000D0
:100030000C9460000C9460000C9460000C946000C0
:100040000C9460000C9460000C9460000C946000B0
:100050000C9460000C9460000C9460000C946000A0
:100060000C9460000C9460000C9460000C94600090
:100070000C9460000C9460000C9460000C94600080
:100080000C9460000C9460000C9460000C94600070
:100090000C9460000C9460000C9460000C94600060
:1000A0000C9460000C9460000C94600011241FBE3E
:1000B000CFEFDAE0DEBFCDBF0E94D5010C94DE01A8
:1000C0000C940000CF93DF93CDB7DEB728970FB61F
:1000D000F894DEBF0FBECDBF29833A834B835C8388
:1000E0006D837E838F8398874F774093E300809161
:1000F000E8008E778093E8008091E80080FFFCCFD5
:100100008091E30080688093E30028960FB6F8940E
:10011000DEBF0FBECDBFDF91CF9108958091F1007A
:1001200008958091F1002091F100922F089520917F
:10013000F1003091F1006091F100862FB90120911A
:10014000F100922F0895CF92DF92EF92FF920F93DA
:100150001F93CF93DF93CDB7DEB728970FB6F894F0
:10016000DEBF0FBECDBF8091F100082F8091F1005E
:10017000182F0E949100F82EE92E0E949100D82E8F
:10018000C92E0E9491002091E800277F2093E8006B
:100190004F2D5E2D6D2D7C2D980128960FB6F8946D
:1001A000DEBF0FBECDBFDF91CF911F910F91FF90AA
:1001B000EF90DF90CF900895CF93DF93CDB7DEB768
:1001C00028970FB6F894DEBF0FBECDBF29833A83C0
:1001D0004B835C836D837E838F83988782E18093DA
:1001E000F10081E08093F1001092F10092E0909391
:1001F000F1001092F1001092F1001092F10020E451
:100200002093F1002DEE2093F1002EEF2093F100CA
:100210002EE42093F1001092F1001092F100109260
:10022000F1008093F1009093F10093E09093F1003E
:100230008093F1008091E8008E778093E8008091B0
:10024000E80082FFFCCF8091E8008B778093E80084
:1002500028960FB6F894DEBF0FBECDBFDF91CF91C9
:1002600008958091D70081608093D70089B580611F
:1002700089BD89B5826089BD09B400FEFDCF80913A
:10028000D80080688093D8008091D8008F7D8093BB
:10029000D8008091D80080618093D8008091D900E7
:1002A00080FFFCCF8091E0008E7F8093E000089576
:1002B000559A5D9808951092E9008091EB00816055
:1002C0008093EB001092EC0082E38093ED0080912C
:1002D000EE0087FF0C94580108958091E10083FFA0
:1002E00007C08091E100877F8093E1000C945B015F
:1002F0000895559A5D9A0895209A28980895CF9365
:10030000DF93CDB7DEB728970FB6F894DEBF0FBEE8
:10031000CDBF8091E80083FF24C00E94A300353048
:1003200061F03630A1F428960FB6F894DEBF0FBE08
:10033000CDBFDF91CF910C94DC0028960FB6F894D6
:10034000DEBF0FBECDBFDF91CF910C946200289627
:100350000FB6F894DEBF0FBECDBFDF91CF910C94E6
:100360007C0128960FB6F894DEBF0FBECDBFDF919B
:10037000CF910895209A289A08958091E000816095
:100380008093E0008FEF93EC29E081509040204073
:10039000E1F700C000000E9479010C94BA01509A64
:1003A000589A0895509A589808950E94BD010E9445
:1003B00031010E946D010E947F01FBCFF894FFCFB5
:00000001FF
