:100000000C9456000C9460000C9460000C946000FA
:100010000C9460000C9460000C9460000C946000E0
:100020000C9460000C9460000C9460000C946000D0
:100030000C9460000C9460000C9460000C946000C0
:100040000C9460000C9460000C9460000C946000B0
:100050000C9460000C9460000C9460000C946000A0
:100060000C9460000C9460000C9460000C94600090
:100070000C9460000C9460000C9460000C94600080
:100080000C9460000C9460000C9460000C94600070
:100090000C9460000C9460000C9460000C94600060
:1000A0000C9460000C9460000C94600011241FBE3E
:1000B000CFEFDAE0DEBFCDBF0E94D8000C94F50090
:1000C0000C940000E1EFF0E082E1808381E0808326
:1000D000108292E0908310821082108220E42083AC
:1000E0002DEE20832EEF20832EE4208310821082B9
:1000F00010828083908393E090838083E8EE8081F8
:100100008E7F808308958091D70081608093D7008F
:1001100089B5806189BD89B5826089BD09B400FE59
:10012000FDCF8091D80080688093D8008091D8005E
:100130008F7D8093D8008091D80080618093D80013
:100140008091D90080FFFCCF8091E0008E7F80936A
:10015000E0000895E0EEF0E08081816080832FEF81
:1001600083EC99E0215080409040E1F700C000000E
:10017000559A5D9A209A289A0895559A5D980895FF
:100180001092E9008091EB0081608093EB00109267
:10019000EC0082E38093ED008091EE0087FF0C94E9
:1001A000BD000895509A589A0895509A5898089505
:1001B0000E94AA000E9483008091E10083FFFCCF8F
:1001C0008091E100877F8093E1000E94C0008091D0
:1001D000E80083FFFCCF8091E800877F8093E800F0
:0E01E0000E9462000E94D200FFCFF894FFCF71
:00000001FF
