:100000000C9456000C9460000C9460000C946000FA
:100010000C9460000C9460000C9460000C946000E0
:100020000C9460000C9460000C9460000C946000D0
:100030000C9460000C9460000C9460000C946000C0
:100040000C9460000C9460000C9460000C946000B0
:100050000C9460000C9460000C9460000C946000A0
:100060000C9460000C9460000C9460000C94600090
:100070000C9460000C9460000C9460000C94600080
:100080000C9460000C9460000C9460000C94600070
:100090000C9460000C9460000C9460000C94600060
:1000A0000C9460000C9460000C94600011241FBE3E
:1000B000CFEFDAE0DEBFCDBF0E94F2000C940F015B
:1000C0000C9400008093F1000895E1EFF0E080834C
:1000D00090830895CB010E946500E1EFF0E010826B
:1000E00010820895CA01B9010E946A0080E090E080
:1000F000BC010C946A00E1EFF0E082E1808381E0D2
:10010000808390E29083108210821082108290E4AB
:1001100090839DEE90839EEF90839EE49083108267
:1001200010821082808392E0908393E0908380839A
:10013000E8EE80818E7F808308958091D700816072
:100140008093D70089B5806189BD89B5826089BDFA
:1001500009B400FEFDCF8091D80080688093D8005C
:100160008091D8008F7D8093D8008091D8008061E5
:100170008093D8008091D90080FFFCCF8091E0006F
:100180008E7F8093E0000895E0EEF0E08081816052
:1001900080832FEF83EC99E0215080409040E1F77D
:1001A00000C00000559A5D9A209A289A0895559AA1
:1001B0005D9808951092E9008091EB008160809332
:1001C000EB001092EC0082E38093ED008091EE0052
:1001D00087FF0C94D7000895509A589A0895509A22
:1001E000589808950E94C4000E949D008091E100EB
:1001F00083FFFCCF8091E100877F8093E1000E9424
:10020000DA008091E80083FFFCCF8091E800877FCF
:100210008093E8000E947B000E94EC00FFCFF894DE
:02022000FFCF0E
:00000001FF
