:100000000C9456000C9460000C9460000C946000FA
:100010000C9460000C9460000C9460000C946000E0
:100020000C9460000C9460000C9460000C946000D0
:100030000C9460000C9460000C9460000C946000C0
:100040000C9460000C9460000C9460000C946000B0
:100050000C9460000C9460000C9460000C946000A0
:100060000C9460000C9460000C9460000C94600090
:100070000C9460000C9460000C9460000C94600080
:100080000C9460000C9460000C9460000C94600070
:100090000C9460000C9460000C9460000C94600060
:1000A0000C9460000C9460000C94600011241FBE3E
:1000B000CFEFDAE0DEBFCDBF0E94D2010C94DB01AE
:1000C0000C940000559A5D980895559A5D9A08958C
:1000D000209A28980895209A289A0895509A589A14
:1000E0000895509A589808950E9483008FEF93ECDA
:1000F00029E0815090402040E1F700C000000E94BC
:1001000065000C946B008091E00081608093E000BA
:1001100008958091D70081608093D70089B5806170
:1001200089BD89B5826089BD09B400FEFDCF80918B
:10013000D80080688093D8008091D8008F7D80930C
:10014000D8008091D80080618093D8008091D90038
:1001500080FFFCCF8091E0008E7F8093E0000895C7
:100160001092E9008091EB0081608093EB00109287
:10017000EC0082E38093ED008091EE0087FF0C9409
:10018000620008958091E10083FF07C08091E10043
:10019000877F8093E1000C94B0000895CF93DF93A4
:1001A000CDB7DEB728970FB6F894DEBF0FBECDBF30
:1001B00029833A834B835C836D837E838F83988707
:1001C0004F774093E3008091E8008E778093E800BA
:1001D0008091E80080FFFCCF8091E30080688093ED
:1001E000E30028960FB6F894DEBF0FBECDBFDF91B7
:1001F000CF9108958091E8008E778093E8008091F8
:10020000E80082FFFCCF8091E8008B778093E800C4
:1002100008958091F10008958091F1002091F100FE
:10022000922F08952091F1003091F1006091F1003A
:10023000862FB9012091F100922F0895CF92DF927D
:10024000EF92FF920F931F93CF93DF93CDB7DEB75B
:1002500028970FB6F894DEBF0FBECDBF8091F10096
:10026000082F8091F100182F0E940C01F82EE92E22
:100270000E940C01D82EC92E0E940C012091E8008A
:10028000277F2093E8004F2D5E2D6D2D7C2D98014A
:1002900028960FB6F894DEBF0FBECDBFDF91CF9189
:1002A0001F910F91FF90EF90DF90CF900895CF9323
:1002B000DF93CDB7DEB728970FB6F894DEBF0FBE39
:1002C000CDBF82E18093F10081E08093F100109234
:1002D000F10092E09093F1001092F1001092F10081
:1002E0001092F10020E42093F1002DEE2093F10014
:1002F0002EEF2093F1002EE42093F1001092F100F4
:100300001092F1001092F1008093F1009093F100AF
:1003100093E09093F1008093F10028960FB6F89443
:10032000DEBF0FBECDBFDF91CF910C94FA00CF930B
:10033000DF93CDB7DEB728970FB6F894DEBF0FBEB8
:10034000CDBF8091E80083FF24C00E941E0135309C
:1003500061F03630A1F428960FB6F894DEBF0FBED8
:10036000CDBFDF91CF910C94570128960FB6F8942A
:10037000DEBF0FBECDBFDF91CF910C94CE0028968B
:100380000FB6F894DEBF0FBECDBFDF91CF910C94B6
:10039000680028960FB6F894DEBF0FBECDBFDF9180
:1003A000CF9108950E9474000E9489000E94C200AB
:0A03B0000E949701FBCFF894FFCFE5
:00000001FF
