:100000000C9456000C9460000C9460000C946000FA
:100010000C9460000C9460000C9460000C946000E0
:100020000C9460000C9460000C9460000C946000D0
:100030000C9460000C9460000C9460000C946000C0
:100040000C9460000C9460000C9460000C946000B0
:100050000C9460000C9460000C9460000C946000A0
:100060000C9460000C9460000C9460000C94600090
:100070000C9460000C9460000C9460000C94600080
:100080000C9460000C9460000C9460000C94600070
:100090000C9460000C9460000C9460000C94600060
:1000A0000C9460000C9460000C94600011241FBE3E
:1000B000CFEFDAE0DEBFCDBF0E947E000C94BA0025
:1000C0000C940000509A589A0895509A58980895A0
:1000D000559A5D980895E0EEF0E08081816080831C
:1000E0002FEF83EC99E0215080409040E1F700C071
:1000F0000000559A5D9A209A289A08950E946B00F4
:100100008091D70081608093D70089B5806189BDD7
:1001100089B5826089BD09B400FEFDCF8091D80009
:1001200080688093D8008091D8008F7D8093D8001C
:100130008091D80080618093D8008091D90080FFA1
:10014000FCCF1092E9008091EB0081608093EB007E
:100150001092EC0082E38093ED008091EE0087FF27
:100160000E9468008091E0008E7F8093E0000E94F2
:080170006200FFCFF894FFCFFD
:00000001FF
