:100000000C9456000C9460000C9460000C946000FA
:100010000C9460000C9460000C9460000C946000E0
:100020000C9460000C9460000C9460000C946000D0
:100030000C9460000C9460000C9460000C946000C0
:100040000C9460000C9460000C9460000C946000B0
:100050000C9460000C9460000C9460000C946000A0
:100060000C9460000C9460000C9460000C94600090
:100070000C9460000C9460000C9460000C94600080
:100080000C9460000C9460000C9460000C94600070
:100090000C9460000C9460000C9460000C94600060
:1000A0000C9460000C9460000C94600011241FBE3E
:1000B000CFEFDAE0DEBFCDBF0E947E000C94CC0013
:1000C0000C940000E0EEF0E08081816080832FEFEF
:1000D00083EC99E0215080409040E1F700C000009F
:1000E000559A5D9A209A289A0895559A5D98089590
:1000F000509A589A0895509A589808950E9462000C
:100100008091D70081608093D70089B5806189BDD7
:1001100089B5826089BD09B400FEFDCF8091D80009
:1001200080688093D8008091D8008F7D8093D8001C
:100130008091D80080618093D8008091D90080FFA1
:10014000FCCF8091E0008E7F8093E0008091E10001
:1001500083FFFCCF8091E100877F8093E1001092C4
:10016000E9008091EB0081608093EB001092EC003D
:1001700082E38093ED008091EE0087FF0E9475007E
:100180008091E80083FFFCCF8091E800877F809317
:0C019000E8000E947800FFCFF894FFCF39
:00000001FF
