:100000000C9456000C9460000C9460000C946000FA
:100010000C9460000C9460000C9460000C946000E0
:100020000C9460000C9460000C9460000C946000D0
:100030000C9460000C9460000C9460000C946000C0
:100040000C9460000C9460000C9460000C946000B0
:100050000C9460000C9460000C9460000C946000A0
:100060000C9460000C9460000C9460000C94600090
:100070000C9460000C9460000C9460000C94600080
:100080000C9460000C9460000C9460000C94600070
:100090000C9460000C9460000C9460000C94600060
:1000A0000C9460000C9460000C94600011241FBE3E
:1000B000CFEFDAE0DEBFCDBF0E9462000C94860075
:1000C0000C9400008091D70081608093D7004C9AF7
:1000D000499A489BFECF8091D80080688093D800D1
:1000E0008091D8008F7D8093D8008091D800806166
:1000F0008093D8008091D90080FFFCCF8091E000F0
:100100008E7F8093E00080E090E00895F894FFCF28
:00000001FF
